:100000000C9440000C945D000C945D000C945D0019
:100010000C945D000C9411030C945D000C945D0035
:100020000C945D000C945D000C945D000C94BA037C
:100030000C945D000C945D000C9488030C945D009E
:100040000C945D000C945D000C945D000C945D00BC
:100050000C945D000C945D000C945D000C945D00AC
:100060000C945D000C945D00010201030104020385
:10007000020402050304030503060405040605063D
:1000800011241FBECFEFD4E0DEBFCDBF11E0A0E052
:10009000B1E0E6E9F8E002C005900D92A430B107A6
:1000A000D9F721E0A4E0B1E001C01D92AF30B20762
:1000B000E1F70E9436030C9449040C940000389830
:1000C000409880E480937C0080917C00807E8093C7
:1000D0007C0087E080937A0080917A00806880932A
:1000E0007A0080917A00806480937A0080917A000F
:1000F00086FDFCCF809178009091790008958091E1
:100100007A00806480937A0080917A0086FDFCCF2B
:1001100080917800909179000895EF92FF921F935B
:10012000CF93DF9380E0E82E80E0F82E10E0D1E05E
:10013000D10FC7010E941804C82F8D2F8F7790E030
:10014000805090400E941804CF5F2C2F30E090E048
:100150002817390739F48FEFE81AF80A1D2FD0381D
:1001600031F701C0D12F8D2FDF91CF911F91FF90DB
:10017000EF9008950E948D008093040190E0880F15
:10018000991F80589F4F0E9420049F700895EF92FE
:10019000FF920F931F93CF93DF938C01C0910401C3
:1001A000EC2EF12CC701880F991F80589F4F0E9499
:1001B00020048017910719F1C701805090400E94D8
:1001C0001804D82F81E08C0F8F778093040190E082
:1001D000880F991FB80180589F4F0E94340461E036
:1001E0006D0F90910401892F90E080509040DF9135
:1001F000CF911F910F91FF90EF900C942604DF9107
:10020000CF911F910F91FF90EF90089587B1817F5B
:1002100087B98AB18F788AB984B18B7E84B93D98C9
:1002200085B1846185B9459A8AB18F608AB98BB1ED
:100230008F608BB90895809101019091020108951A
:100240009093020180930101089580930001089525
:1002500088B1817F88B98BB18F788BB987B1817F65
:1002600087B98AB18F788AB908959C01220F331F0C
:10027000F901E859FF4F9491F901E759FF4FE491D3
:100280006623C9F1943070F08AB121E030E001C0FA
:10029000220F9A95EAF7822B8AB98BB120952823F1
:1002A0002BB90DC087B121E030E001C0220F9A9533
:1002B000EAF7822B87B988B12095282328B9E43042
:1002C00068F02AB181E090E001C0880FEA95EAF772
:1002D000922F982B9AB99BB1892B37C027B181E017
:1002E00090E001C0880FEA95EAF7922F982B97B912
:1002F00098B1892B39C0943068F08AB121E030E0A0
:1003000001C0220F9A95EAF7822B8AB98BB1282B6C
:100310002BB90CC087B121E030E001C0220F9A95C3
:10032000EAF7822B87B988B1282B28B9E43078F016
:100330002AB181E090E001C0880FEA95EAF7922F98
:10034000982B9AB99BB1809589238BB9089527B1D1
:1003500081E090E001C0880FEA95EAF7922F982B90
:1003600097B998B18095892388B90895CF930E9451
:100370002801C0910801209100018C2F90E0C21348
:1003800002C060E011C021E030E00C2E02C0220F5C
:10039000331F0A94E2F74091010150910201242396
:1003A0003523232B19F061E00E943501CF5FCC305B
:1003B00018F4C093080102C010920801CF9108956B
:1003C0000F931F93CF93DF93609105018BB18F60E3
:1003D0008BB94BB181E090E00090060102C0880F1C
:1003E000991F0A94E2F7809584238BB980910701C5
:1003F000813031F0823041F083B18695869508C016
:1004000093B192959F7005C086B18295869587704D
:1004100091E08927282F217030E081E090E0EC0105
:10042000062E02C0CC0FDD1F0A94E2F740910901AD
:1004300050910A01C90102C0880F991F6A95E2F71D
:10044000BE01642375236817790709F18E010095B1
:10045000109540235123842B952B90930A01809370
:100460000901232BA1F00E94CF03809101019091FB
:1004700002019E0128233923232B19F48C2B9D2B59
:1004800002C0802391239093020180930101809107
:1004900005018F5F80930501809106018F5F843095
:1004A00018F4809306010EC0109206018091070196
:1004B0008F5F833018F48093070104C01092070106
:1004C00010920501DF91CF911F910F91089580B790
:1004D000806880BF3C98449A57985F980E94980320
:1004E0000E9447030E945F000E940601E8E6F0E0D8
:1004F000808184608083EDE6F0E080818068808385
:10050000789408959F92AF92BF92CF92DF92EF922C
:10051000FF920F931F93CF93DF93EC010E941B0177
:10052000892B29F483E60E94250180E05DC080913B
:100530000B0190910C019E01281B390BC90137FF5B
:1005400003C091958195910903970CF44BC0D0930A
:100550000C01C0930B01CE01880F991F089661E131
:1005600070E00E94F003162F862F6CE00E94E403D7
:10057000082F982E3CE0839F10191124C0E0D0E092
:10058000E12EF12C3CE0C32ED12CAA24A394B12C53
:100590000E941B019C01CE018E0D9F1DB6010E9481
:1005A0000404A50102C0440F551F8A95E2F7CA0151
:1005B00082239323892B21F42196CD30D10541F755
:1005C0008C2F810F8C3020F08C5099249394900EB6
:1005D000C82F5CE0959EC00D11240E9425018C2F30
:1005E000880F02C080910D01DF91CF911F910F9173
:1005F000FF90EF90DF90CF90BF90AF909F900895C5
:100600000E947F0001960E94820290910D0189173D
:1006100039F080930D0160E00E9450030C94B50303
:1006200008951F920F920FB60F9211242F933F93AC
:100630004F935F936F937F938F939F93AF93BF93EA
:10064000EF93FF934F9B0E940003FF91EF91BF91A7
:10065000AF919F918F917F916F915F914F913F915A
:100660002F910F900FBE0F901F9018950E94670258
:100670000E94BA000E9420010E94E0010E94B6017F
:100680000E94D403349BF8CF0E940003F5CF0E9450
:10069000720384B1836084B985B1836085B908959C
:1006A0001F93CF93DF93299A289820E1829FC0015E
:1006B0001124EC01D0611BB18BB18F608BB981E04B
:1006C0000E947F038D2F0E9479038C2F0E94790353
:1006D00080E00E947F031BB9289A2998DF91CF916F
:1006E0001F91089584B1886284B982E18CBD1DBCDC
:1006F00008958EBD0DB407FEFDCF8EB508958823F5
:1007000019F08CB5806402C08CB58F7B8CBD0895C8
:100710001F920F920FB60F9211248F9385B58A7F87
:1007200085BD299A8F910F900FBE0F901F9018953D
:1007300082E084BD80EF87BDEEE6F0E080818260DC
:100740008083E1E8F0E0808185608083808188603B
:1007500080838BE49CE49093890080938800EFE68B
:10076000F0E0808182608083089516BC85B5856045
:1007700085BD08951F920F920FB60F9211248F938B
:1007800080910E018F3028F480910E018F5F80934D
:100790000E018F910F900FBE0F901F901895109221
:1007A000030110920E0108958091030181110BC085
:1007B00080910E018F3038F00E941B010E94C7000B
:1007C00081E0809303010895991B79E004C0991F8B
:1007D000961708F0961B881F7A95C9F7809508959B
:1007E000AA1BBB1B51E107C0AA1FBB1FA617B70757
:1007F00010F0A61BB70B881F991F5A95A9F7809573
:100800009095BC01CD01089597FB072E16F4009436
:1008100007D077FD09D00E94F00307FC05D03EF415
:10082000909581959F4F0895709561957F4F08959C
:10083000F999FECF92BD81BDF89A992780B50895A8
:10084000A8E1B0E042E050E00C943B04262FF99977
:10085000FECF1FBA92BD81BD20BD0FB6F894FA9AA3
:10086000F99A0FBE019608950E942604272F0C9432
:100870002704DC01CB01FC01F999FECF06C0F2BDD3
:10088000E1BDF89A319600B40D9241505040B8F74E
:060890000895F894FFCF6B
:0408960002FF0F014D
:00000001FF
